:020000040800F2
:1000000000500020790D00081D0C0008250C000888
:100010002D0C0008350C00083D0C00080000000005
:10002000000000000000000000000000450C000877
:10003000510C0008000000005D0C0008690C00086D
:10004000C10D0008750C0008C10D0008C10D0008A5
:10005000C10D0008C10D0008810C0008C10D000889
:10006000C10D00088F0C0008C10D0008C10D00086B
:10007000C10D0008C10D0008C10D0008C10D000828
:10008000C10D0008C10D00089D0C0008C10D00083D
:10009000C10D0008C10D0008C10D0008C10D000808
:1000A000C10D0008B10C0008C10D0008C50C000806
:1000B000D90C0008C10D0008C10D0008C10D0008D1
:1000C000C10D0008C10D0008C10D0008C10D0008D8
:1000D000C10D0008ED0C0008C10D0008C10D00089D
:1000E000C10D0008C10D0008C10D0008000000008E
:1000F0000000000000000000000000000000000000
:0C01000000000000000000005FF808F1A3
:10010C0010B5054C237833B9044B13B10448AFF345
:10011C0000800123237010BD60000020000000004F
:10012C00884F000808B5034B1BB103490348AFF3D4
:10013C00008008BD0000000064000020884F00080B
:10014C00034613F8012B002AFBD1181A013870470B
:10015C0080B500AF00F030FE00F018F800F0A0F908
:10016C0000F026F900F072F900F09EF800F05EF84D
:10017C00012000F043FA01220249034803F0BEFCBF
:10018C0000BFFDE7840100203C01002080B594B045
:10019C0000AF07F1280328220021184604F05EFA6C
:1001AC0007F1140300221A605A609A60DA601A612F
:1001BC003B1D00221A605A609A60DA600223BB620F
:1001CC000123BB631023FB6300237B6407F128032B
:1001DC00184601F02BFE0346002B01D000F0BAFBB1
:1001EC000F237B610023BB610023FB6100233B6277
:1001FC0000237B6207F114030021184602F098F8E3
:10020C000346002B01D000F0A5FB02237B600023EA
:10021C00FB603B1D184602F019FA0346002B01D077
:10022C0000F098FB00BF5037BD4680BD80B584B050
:10023C0000AF3B1D00221A605A609A60184B194A95
:10024C001A60174B00229A60154B01221A73144B3B
:10025C0000221A75124B4FF46022DA61104B002207
:10026C005A600F4B01221A610D4800F007FE03463D
:10027C00002B01D000F06EFB01237B600123BB60DF
:10028C000723FB603B1D1946054801F08DF803461A
:10029C00002B01D000F05EFB00BF1037BD4680BDC7
:1002AC007C0000200024014080B592B000AF07F123
:1002BC00400300221A605A6007F1240300221A60DE
:1002CC005A609A60DA601A615A619A613B1D202269
:1002DC000021184604F0C2F9334B344A1A60324BF1
:1002EC0050225A60304B00229A602F4B40F2E7327A
:1002FC00DA602D4B00221A612B4B00225A612A4BDB
:10030C0080229A61284802F027FB0346002B01D07B
:10031C0000F020FB00233B6400237B6407F14003C7
:10032C001946214803F04EFA0346002B01D000F089
:10033C0011FB60237B6240F2B633BB620023FB628D
:10034C0000233B6300237B630023BB630023FB631D
:10035C0007F1240300221946134802F0DFFD03467F
:10036C00002B01D000F0F6FA00237B600023BB6069
:10037C000023FB6000233B6100237B614FF400539F
:10038C00BB6100233B623B1D1946074803F078FA1A
:10039C000346002B01D000F0DDFA034800F0B0FB5F
:1003AC0000BF4837BD4680BDAC000020002C01408A
:1003BC0080B586B000AF07F1080300221A605A60BE
:1003CC009A60DA603B4600221A605A601E4B4FF06E
:1003DC0080421A601C4B41F63F725A601A4B002245
:1003EC009A60194B41F28732DA60174B00221A617E
:1003FC00154B80229A61144802F0DEF90346002B5B
:10040C0001D000F0A7FA4FF48053BB6007F108034A
:10041C0019460D4802F044FE0346002B01D000F0B3
:10042C0099FA00233B6000237B603B461946064843
:10043C0003F0C8F90346002B01D000F08BFA00BF83
:10044C001837BD4680BD00BFF400002080B500AF5A
:10045C00114B124A1A60104B4FF416525A600E4B45
:10046C0000229A600C4B0022DA600B4B00221A61BE
:10047C00094B0C225A61084B00229A61064B002250
:10048C00DA61054803F05FFA0346002B01D000F057
:10049C0061FA00BF80BD00BF3C0100200038014064
:1004AC0080B588B000AF07F1100300221A605A60C3
:1004BC009A60DA60314B9B69304A43F020039361B8
:1004CC002E4B9B6903F02003FB60FB682B4B9B6955
:1004DC002A4A43F004039361284B9B6903F00403FD
:1004EC00BB60BB68254B9B69244A43F008039361AE
:1004FC00224B9B6903F008037B607B680022082178
:10050C001F4801F031FC01233B611E4B7B61022330
:10051C00BB6107F110031946194801F0A1FA082331
:10052C003B6101237B610123BB610223FB6107F16A
:10053C0010031946124801F093FA08233B61124B41
:10054C007B610223BB6107F1100319460F4801F0D0
:10055C0087FA00220021062001F099F9062001F00B
:10056C00B2F900220021092001F091F9092001F0D3
:10057C00AAF900BF2037BD4680BD00BF0010024065
:10058C00000801400000111000003110000C014067
:10059C0080B582B000AF78607868FFF7D1FD034674
:1005AC009AB24FF4FA737968034803F01CFA00BF4F
:1005BC000837BD4680BD00BF3C01002080B582B02D
:1005CC0000AF0346FB800B4B1B68FA88DA62FB8892
:1005DC00084AD360074802F03FF90021064802F0B0
:1005EC00FBFA054B1B6800225A6200BF0837BD4658
:1005FC0080BD00BFF4000020AC00002080B582B0AC
:10060C0000AF0346FB712F4802F078F92E4802F038
:10061C0075F92C4B1B6800225A622C4800F0BCFD6B
:10062C00FB79013B042B48D801A252F823F000BF00
:10063C0051060008610600087106000891060008C2
:10064C00A106000841F28730FFF7B8FF2048FFF7FA
:10065C009FFF32E042F20F70FFF7B0FF1D48FFF72B
:10066C0097FF2AE0184802F0F7F8002208211A48F0
:10067C0001F07AFB0021144802F0BEF91748FFF78D
:10068C0087FF1AE040F6B730FFF798FF1448FFF7E2
:10069C007FFF12E00C4802F0DFF8002208210E4820
:1006AC0001F062FB0021084802F0A6F90D48FFF7A3
:1006BC006FFF064800F0BAFC00BF00BF0837BD460C
:1006CC0080BD00BFF4000020AC0000207C000020A6
:1006DC00A04F0008AC4F000800080140B84F0008BC
:1006EC00C44F0008D04F000880B582B000AF7860CE
:1006FC007B681B680B4A93420FD10B4B1B78303B2A
:10070C00DAB20A4B1A70094B1B781846FFF776FFC2
:10071C0001220549064803F0F1F900BF0837BD4630
:10072C0080BD00BF003801408401002087010020FB
:10073C003C01002080B582B000AF78607B681B68FC
:10074C00B3F1804F03D10821034801F025FB00BF12
:10075C000837BD4680BD00BF0008014080B483B09F
:10076C0000AF78607B681B68184A934229D1184BFC
:10077C001B78032B25D1174B1B78002B10D1164B54
:10078C001A88164B1B685A63134B1B885A1E91B25E
:10079C00114A1180012B14D10E4B01221A7010E05A
:1007AC000D4B1A880D4B1B685A630B4B1B885A1C3C
:1007BC0091B2094A1180B3F57A7F02D1054B002220
:1007CC001A7000BF0C37BD4680BC7047002C01402E
:1007DC00870100208501002000000020AC000020D3
:1007EC0080B582B000AF0346FB80FB88012B2AD179
:1007FC0000F03AFB02462A4B1B68D31AC82B4BD984
:10080C00284B1B780133DAB2264B1A70254B1B7818
:10081C00032B06D9234B1B78042B02D8214B052222
:10082C001A70204B1B78052B02D91E4B01221A7013
:10083C001C4B1B781846FFF7E1FE00F015FB034636
:10084C00174A136028E0FB88082B25D100F00CFB1D
:10085C000246134B1B68D31A322B1DD9124B1B7833
:10086C00002B09D10420FFF7C9FE0F4B1B78013375
:10087C00DAB20D4B1A700AE00B4B00221A700B48BF
:10088C00FFF786FE074B1B781846FFF7B7FE00F004
:10089C00EBFA0346024A136000BF0837BD4680BD21
:1008AC00880100208701002086010020DC4F000811
:1008BC0080B588B000AF78607B681B681D4A934296
:1008CC0034D11D4B1B78052B30D100F0CDFA0246EC
:1008DC001A4B1B68D31AC82B28D9194800F090FC66
:1008EC0003469AB2174B1A80164B1B881A46164BA6
:1008FC001B68DB6A02FB03F3144AA2FB03231B0AEB
:10090C00FB83114B1B68FA8B5A63FA8B07F10803B4
:10091C000F49184603F082FE07F108031846FFF74B
:10092C0037FE00F0A1FA0346044A136000BF2037DB
:10093C00BD4680BD00240140870100208C010020B1
:10094C007C00002090010020AC000020D34D6210F0
:10095C00E84F000880B400AF72B600BF00BFFDE7DF
:10096C0080B584B000AF194B9B69184A43F0010362
:10097C009361164B9B6903F00103BB60BB68134B7F
:10098C00DB69124A43F08053D361104BDB6903F0EF
:10099C0080537B607B6800220021012000F077FFF0
:1009AC00012000F090FF0A4B5B68FB60FB6823F0B2
:1009BC00E063FB60FB6843F00073FB60044AFB6878
:1009CC00536000BF1037BD4680BD00BF0010024011
:1009DC000000014080B588B000AF786007F11003CB
:1009EC0000221A605A609A60DA607B681B68184AA9
:1009FC00934229D1174B9B69164A43F400739361B8
:100A0C00144B9B6903F40073FB60FB68114B9B69EF
:100A1C00104A43F0040393610E4B9B6903F00403EB
:100A2C00BB60BB6802233B6103237B6107F11003AE
:100A3C001946094801F014F800220021122000F098
:100A4C0026FF122000F03FFF00BF2037BD4680BDBF
:100A5C0000240140001002400008014080B584B021
:100A6C0000AF78607B681B68114A93421BD1114B15
:100A7C009B69104A43F4006393610E4B9B6903F42A
:100A8C000063FB60FB6800220021192000F0FFFED0
:100A9C00192000F018FF002200211B2000F0F7FEA7
:100AAC001B2000F010FF00BF1037BD4680BD00BFFB
:100ABC00002C01400010024080B584B000AF78607B
:100ACC007B681B68B3F1804F13D10C4BDB690B4A6D
:100ADC0043F00103D361094BDB6903F00103FB60B5
:100AEC00FB68002200211C2000F0D1FE1C2000F02D
:100AFC00EAFE00BF1037BD4680BD00BF00100240AB
:100B0C0080B588B000AF786007F1100300221A603E
:100B1C005A609A60DA607B681B68104A934218D15D
:100B2C000F4B9B690E4A43F0040393610C4B9B697A
:100B3C0003F00403FB60FB684FF480733B610223FA
:100B4C007B610223FB6107F110031946054800F095
:100B5C0087FF00BF2037BD4680BD00BF002C014081
:100B6C00001002400008014080B588B000AF7860EA
:100B7C0007F1100300221A605A609A60DA607B68F1
:100B8C001B68204A934239D11F4B9B691E4A43F480
:100B9C00804393611C4B9B6903F48043FB60FB68AF
:100BAC00194B9B69184A43F004039361164B9B69DC
:100BBC0003F00403BB60BB684FF400733B6102237A
:100BCC007B610323FB6107F1100319460F4800F00A
:100BDC0047FF4FF480633B6100237B610023BB61C3
:100BEC0007F110031946094800F03AFF00220021D2
:100BFC00252000F04CFE252000F065FE00BF2037BC
:100C0C00BD4680BD00380140001002400008014084
:100C1C0080B400AF00BFFDE780B400AF00BFFDE7BC
:100C2C0080B400AF00BFFDE780B400AF00BFFDE7AC
:100C3C0080B400AF00BFFDE780B400AF00BFBD467D
:100C4C0080BC704780B400AF00BFBD4680BC70470D
:100C5C0080B400AF00BFBD4680BC704780B500AF0C
:100C6C0000F0F0F800BF80BD80B500AF01F0C6F811
:100C7C0000BF80BD80B500AF012001F0A7F800BF18
:100C8C0080BD80B500AF082001F0A0F800BF80BD8A
:100C9C0080B500AF024800F0BFFA00BF80BD00BFB6
:100CAC007C00002080B500AF024802F047F800BF7E
:100CBC0080BD00BFAC00002080B500AF024802F040
:100CCC003DF800BF80BD00BFAC00002080B500AF78
:100CDC00024802F033F800BF80BD00BFF4000020D2
:100CEC0080B500AF024802F02FFF00BF80BD00BFEF
:100CFC003C01002080B586B000AF7860144A154BDB
:100D0C00D31A7B617B693B61134B1B68002B02D1AF
:100D1C00114B124A1A60104B1A687B6813443A69DB
:100D2C009A4207D203F0A2FC03460C221A604FF041
:100D3C00FF3309E0084B1B68FB60074B1A687B68A4
:100D4C001344054A1360FB6818461837BD4680BD2E
:100D5C00005000200004000094010020E802002054
:100D6C0080B400AF00BFBD4680BC7047FFF7F8FFF2
:100D7C000B480C490C4A002302E0D458C4500433ED
:100D8C00C4188C42F9D3094A094C002301E01360C2
:100D9C000432A242FBD303F06FFCFFF7D9F9704782
:100DAC00000000206000002064500008600000205B
:100DBC00E4020020FEE7000080B500AF084B1B6882
:100DCC00074A43F010031360032000F055FD0F2079
:100DDC0000F008F8FFF7C4FD0023184680BD00BFE3
:100DEC000020024080B582B000AF7860124B1A68C8
:100DFC00124B1B7819464FF47A73B3FBF1F3B2FB29
:100E0C00F3F3184600F06DFD0346002B01D00123CF
:100E1C000EE07B680F2B0AD8002279684FF0FF3068
:100E2C0000F035FD064A7B681360002300E00123C7
:100E3C0018460837BD4680BD040000200C00002079
:100E4C000800002080B400AF054B1B781A46054BF8
:100E5C001B681344034A136000BFBD4680BC704737
:100E6C000C0000209801002080B400AF024B1B68DE
:100E7C001846BD4680BC70479801002080B586B0EE
:100E8C0000AF78600023FB7500233B610023BB603F
:100E9C000023FB607B68002B01D10123BEE07B6843
:100EAC009B68002B7B689B6A002B09D17B68002216
:100EBC00DA627B68002283F824207868FFF78AFDC9
:100ECC00786800F0C3FB0346FB757B689B6A03F0F4
:100EDC001003002B40F09980FB7D002B40F0958097
:100EEC007B689B6A23F4885323F0020343F00202CD
:100EFC007B689A627B685A687B68DB691A437B68FB
:100F0C001B7B5B001343BA681343BB607B689B6815
:100F1C00B3F5807F03D07B689B68012B02D14FF423
:100F2C00807300E000233A6913433B617B681B7DAF
:100F3C00012B19D17B681B7B002B09D17B689B692A
:100F4C00013B5A033B69134343F400633B610BE0E1
:100F5C007B689B6A43F020027B689A627B68DB6A41
:100F6C0043F001027B68DA627B681B685B6823F4E0
:100F7C0069417B681B683A690A435A607B681B6845
:100F8C009A68284B13407A681268B9680B439360CF
:100F9C007B689B68B3F5807F03D07B689B68012BD3
:100FAC0004D17B681B69013B1B05FB607B681B68DC
:100FBC00DB6A23F470017B681B68FA680A43DA6207
:100FCC007B681B689A68184B1340BA689A420BD11D
:100FDC007B680022DA627B689B6A23F0030343F090
:100FEC0001027B689A6218E07B689B6A23F012030B
:100FFC0043F010027B689A627B68DB6A43F0010263
:10100C007B68DA620123FB7507E07B689B6A43F01F
:10101C0010027B689A620123FB75FB7D184618371A
:10102C00BD4680BDFDF7E1FFFE0E1FFF80B584B00D
:10103C0000AF78600023FB737B6893F82430012B9E
:10104C0001D10223A0E07B68012283F82420786878
:10105C0000F0A2FA0346FB73FB7B002B40F08F8061
:10106C007B689B6A23F4706323F0010343F4807262
:10107C007B689A627B681B68454A934205D1454B55
:10108C005B6803F47023002B15D17B689B6A23F4F7
:10109C0080127B689A627B681B685B6803F48063D0
:1010AC00002B26D07B689B6A23F4405343F4805278
:1010BC007B689A621DE07B689B6A43F480127B68B4
:1010CC009A627B681B68334A934204D07B681B6826
:1010DC002F4A93420DD12F4B5B6803F48063002B96
:1010EC0007D07B689B6A23F4405343F480527B689F
:1010FC009A627B689B6A03F48053002B06D07B6852
:10110C00DB6A23F006027B68DA6202E07B6800226D
:10111C00DA627B68002283F824207B681B686FF0FE
:10112C0002021A607B681B685A687B681B6842F075
:10113C0020025A607B681B689B6803F46023B3F53C
:10114C00602F13D17B681B68114A934205D1114B58
:10115C005B6803F47023002B08D17B681B689A68CA
:10116C007B681B6842F4A0029A600CE07B681B68E9
:10117C009A687B681B6842F480129A6003E07B6873
:10118C00002283F82420FB7B18461037BD4680BD17
:10119C00002801400024014080B584B000AF786085
:1011AC000023FB737B6893F82430012B01D10223BD
:1011BC0022E07B68012283F82420786800F046FA4C
:1011CC000346FB73FB7B002B11D17B681B685A68B1
:1011DC007B681B6822F020025A607B689B6A23F4B0
:1011EC00885323F0010343F001027B689A627B6809
:1011FC00002283F82420FB7B18461037BD4680BDA7
:10120C0080B483B000AF78607B681B68DB6C1846D9
:10121C000C37BD4680BC704780B584B000AF786099
:10122C007B681B681B68FB607B681B685B68BB602A
:10123C00BB6803F02003002B3ED0FB6803F00203D5
:10124C00002B39D07B689B6A03F01003002B05D16F
:10125C007B689B6A43F400727B689A627B681B68AC
:10126C009B6803F46023B3F5602F1DD17B681B7B57
:10127C00002B19D17B681B685A687B681B6822F0AD
:10128C0020025A607B689B6A23F480727B689A62A6
:10129C007B689B6A03F48053002B05D17B689B6AA7
:1012AC0043F001027B689A627868FFF701FB7B6868
:1012BC001B686FF012021A60BB6803F08003002BEE
:1012CC004DD0FB6803F00403002B48D07B689B6A6D
:1012DC0003F01003002B05D17B689B6A43F400528A
:1012EC007B689A627B681B689B6803F4E043B3F5E8
:1012FC00E04F12D07B681B685B6803F48063002BA3
:10130C0025D17B681B689B6803F46023B3F5602FC1
:10131C001DD17B681B7B002B19D17B681B685A681D
:10132C007B681B6822F080025A607B689B6A23F4FE
:10133C0080527B689A627B689B6A03F48073002BF3
:10134C0005D17B689B6A43F001027B689A627868DE
:10135C0000F0BDF97B681B686FF00C021A60BB686B
:10136C0003F04003002B12D0FB6803F00103002BA9
:10137C000DD07B689B6A43F480327B689A627868F4
:10138C0000F009F87B681B686FF001021A6000BF5F
:10139C001037BD4680BD80B483B000AF786000BF0D
:1013AC000C37BD4680BC704780B485B000AF786008
:1013BC0039600023FB730023BB607B6893F82430F7
:1013CC00012B01D10223DCE07B68012283F824206D
:1013DC003B685B68062B1CD87B681B68596B3B68A9
:1013EC005A6813469B001344053B1F2202FA03F371
:1013FC00DB4319403B6818683B685A6813469B00EE
:10140C001344053B00FA03F27B681B680A435A63DA
:10141C003CE03B685B680C2B1CD87B681B68196B29
:10142C003B685A6813469B001344233B1F2202FA65
:10143C0003F3DB4319403B6818683B685A68134652
:10144C009B001344233B00FA03F27B681B680A439E
:10145C001A631BE07B681B68D96A3B685A681346A1
:10146C009B001344413B1F2202FA03F3DB43194058
:10147C003B6818683B685A6813469B001344413B11
:10148C0000FA03F27B681B680A43DA623B681B684C
:10149C00092B1CD97B681B68D9683B681A681346F2
:1014AC005B0013441E3B072202FA03F3DB43194093
:1014BC003B6898683B681A6813465B0013441E3BF4
:1014CC0000FA03F27B681B680A43DA6019E07B6858
:1014DC001B6819693B681A6813465B0013440722A2
:1014EC0002FA03F3DB4319403B6898683B681A68BF
:1014FC0013465B00134400FA03F27B681B680A4333
:10150C001A613B681B68102B03D03B681B68112BBE
:10151C0032D17B681B681D4A934225D17B681B68BE
:10152C009B6803F40003002B26D17B681B689A6828
:10153C007B681B6842F400029A603B681B68102BA6
:10154C001AD1134B1B68134AA2FB03239A0C1346A4
:10155C009B0013445B00BB6002E0BB68013BBB60BB
:10156C00BB68002BF9D107E07B689B6A43F0200233
:10157C007B689A620123FB737B68002283F824202A
:10158C00FB7B18461437BD4680BC704700240140D5
:10159C000400002083DE1B4380B584B000AF78606C
:1015AC000023FB600023BB607B681B689B6803F017
:1015BC000103012B40D07B681B689A687B681B6811
:1015CC0042F001029A601F4B1B681F4AA2FB0323C7
:1015DC009B0CBB6002E0BB68013BBB60BB68002B93
:1015EC00F9D1FFF741FCF8601FE0FFF73DFC024624
:1015FC00FB68D31A022B18D97B681B689B6803F015
:10160C000103012B11D07B689B6A43F010027B68AD
:10161C009A627B68DB6A43F001027B68DA627B6862
:10162C00002283F82420012307E07B681B689B6859
:10163C0003F00103012BD8D1002318461037BD4607
:10164C0080BD00BF0400002083DE1B4380B584B046
:10165C0000AF78600023FB607B681B689B6803F01D
:10166C000103012B2ED17B681B689A687B681B6871
:10167C0022F001029A60FFF7F7FBF8601BE0FFF71E
:10168C00F3FB0246FB68D31A022B14D97B681B6848
:10169C009B6803F00103012B0DD17B689B6A43F01F
:1016AC0010027B689A627B68DB6A43F001027B68FC
:1016BC00DA62012307E07B681B689B6803F0010377
:1016CC00012BDCD0002318461037BD4680BD80B4FA
:1016DC0083B000AF786000BF0C37BD4680BC70474C
:1016EC0080B485B000AF78607B6803F00703FB60C3
:1016FC000C4BDB68BB60BA684FF6FF031340BB6052
:10170C00FB681A02BB68134343F0BF6343F4003316
:10171C00BB60044ABB68D36000BF1437BD4680BCB5
:10172C00704700BF00ED00E080B400AF044BDB68F5
:10173C001B0A03F007031846BD4680BC704700BF68
:10174C0000ED00E080B483B000AF0346FB7197F965
:10175C000730002B0BDBFB7903F01F02064997F9CE
:10176C0007305B09012000FA02F241F8232000BF88
:10177C000C37BD4680BC704700E100E080B483B0FC
:10178C0000AF03463960FB7197F90730002B0ADB79
:10179C003B68DAB20C4997F907301201D2B20B440C
:1017AC0083F800230AE03B68DAB20849FB7903F0BE
:1017BC000F03043B1201D2B20B441A7600BF0C3754
:1017CC00BD4680BC704700BF00E100E000ED00E0CA
:1017DC0080B489B000AFF860B9607A60FB6803F040
:1017EC000703FB61FB69C3F10703042B28BF042328
:1017FC00BB61FB690433062B02D9FB69033B00E098
:10180C0000237B614FF0FF32BB6902FA03F3DA432A
:10181C00BB681A407B699A404FF0FF317B6901FA33
:10182C0003F3D9437B680B40134318462437BD465A
:10183C0080BC704780B582B000AF78607B68013B9C
:10184C00B3F1807F01D301230FE00A4A7B68013B8F
:10185C0053600F214FF0FF30FFF790FF054B002234
:10186C009A60044B07221A60002318460837BD46BD
:10187C0080BD00BF10E000E080B582B000AF7860A2
:10188C007868FFF72DFF00BF0837BD4680BD80B5D7
:10189C0086B000AF0346B9607A60FB7300237B61AE
:1018AC00FFF742FF78617A68B9687869FFF790FFB3
:1018BC00024697F90F3011461846FFF75FFF00BF3D
:1018CC001837BD4680BD80B582B000AF0346FB71B2
:1018DC0097F907301846FFF735FF00BF0837BD46AC
:1018EC0080BD80B582B000AF78607868FFF7A2FF4A
:1018FC00034618460837BD4680BD80B485B000AF9E
:10190C0078600023FB737B6893F82130DBB2022BE9
:10191C0008D07B6804229A637B68002283F820201D
:10192C00012320E07B681B681A687B681B6822F027
:10193C000E021A607B681B681A687B681B6822F0B1
:10194C0001021A607B681A6C7B68DB6B012101FA5F
:10195C0002F25A607B68012283F821207B68002206
:10196C0083F82020FB7B18461437BD4680BC70479B
:10197C0080B584B000AF78600023FB737B6893F86C
:10198C002130DBB2022B05D07B6804229A63012341
:10199C00FB7351E07B681B681A687B681B6822F03C
:1019AC000E021A607B681B681A687B681B6822F041
:1019BC0001021A607B681B68224A934229D07B681B
:1019CC001B68214A934222D07B681B681F4A9342B2
:1019DC001AD07B681B681E4A934212D07B681B6826
:1019EC001C4A93420AD07B681B681B4A934202D163
:1019FC004FF480130EE04FF080730BE04FF4803304
:101A0C0008E04FF4805305E04FF4807302E010239C
:101A1C0000E00123114A53607B68012283F82120E6
:101A2C007B68002283F820207B685B6B002B03D043
:101A3C007B685B6B78689847FB7B18461037BD4614
:101A4C0080BD00BF080002401C0002403000024074
:101A5C0044000240580002406C000240000002406A
:101A6C0080B48BB000AF7860396000237B620023B8
:101A7C003B6269E101227B6A02FA03F3FB613B687A
:101A8C001B68FA691340BB61BA69FB699A4240F062
:101A9C0058813B685B689A4A93425ED0984A93425D
:101AAC0075D8984A934258D0964A93426FD8964A22
:101ABC00934252D0944A934269D8944A93424CD060
:101ACC00924A934263D8924A934246D0904A9342A8
:101ADC005DD8122B2AD8122B59D801A252F823F018
:101AEC00671B0008411B0008531B0008951B0008CE
:101AFC009B1B00089B1B00089B1B00089B1B0008E2
:101B0C009B1B00089B1B00089B1B00089B1B0008D1
:101B1C009B1B00089B1B00089B1B00089B1B0008C1
:101B2C009B1B0008491B00085D1B0008794A934267
:101B3C0013D02CE03B68DB683B6229E03B68DB6838
:101B4C0004333B6224E03B68DB6808333B621FE0F4
:101B5C003B68DB680C333B621AE03B689B68002BEC
:101B6C0002D104233B6213E03B689B68012B05D137
:101B7C0008233B627B68FA691A6109E008233B621F
:101B8C007B68FA695A6103E000233B6200E000BF06
:101B9C00BB69FF2B01D87B6801E07B6804337B6158
:101BAC00BB69FF2B02D87B6A9B0002E07B6A083B77
:101BBC009B003B617B691A680F213B6901FA03F3B7
:101BCC00DB431A40396A3B6901FA03F31A437B6918
:101BDC001A603B685B6803F08053002B00F0B18007
:101BEC004D4B9B694C4A43F0010393614A4B9B69F3
:101BFC0003F00103BB60BB68484A7B6A9B08023355
:101C0C0052F82330FB607B6A03F003039B000F2226
:101C1C0002FA03F3DB43FA681340FB607B68404A2B
:101C2C00934213D07B683F4A93420DD07B683E4A67
:101C3C00934207D07B683D4A934201D1032306E0CF
:101C4C00042304E0022302E0012300E000237A6A6B
:101C5C0002F0030292009340FA681343FB602F4991
:101C6C007B6A9B080233FA6841F823203B685B6867
:101C7C0003F48013002B06D02D4B9A682C49BB69BA
:101C8C0013438B6006E02A4B9A68BB69DB432849F7
:101C9C0013408B603B685B6803F40013002B06D089
:101CAC00234BDA682249BB691343CB6006E0204B17
:101CBC00DA68BB69DB431E491340CB603B685B6849
:101CCC0003F40033002B06D0194B5A681849BB6932
:101CDC0013434B6006E0164B5A68BB69DB4314494F
:101CEC0013404B603B685B6803F48033002B21D0BE
:101CFC000F4B1A680E49BB6913430B6021E000BF00
:101D0C0000003210000031100000221000002110E1
:101D1C0000001210000011100010024000000140E1
:101D2C0000080140000C014000100140001401406B
:101D3C00000401400B4B1A68BB69DB430949134093
:101D4C000B607B6A01337B623B681A687B6A22FA00
:101D5C0003F3002B7FF48EAE00BF00BF2C37BD46C3
:101D6C0080BC70470004014080B483B000AF786041
:101D7C000B467B8013467B707B78002B03D07A88D4
:101D8C007B681A6103E07B881A047B681A6100BFC8
:101D9C000C37BD4680BC704780B485B000AF78600E
:101DAC000B467B807B68DB68FB607A88FB681340A2
:101DBC001A04FB68D9437B880B401A437B681A6171
:101DCC0000BF1437BD4680BC7047000080B582B0A0
:101DDC0000AF0346FB80084B5A69FB881340002B6D
:101DEC0006D0054AFB885361FB881846FEF7F8FCC1
:101DFC0000BF0837BD4680BD0004014080B500AF70
:101E0C00064B5B6903F48033002B05D000F008F817
:101E1C00024B4FF480325A6100BF80BD0004014078
:101E2C0080B400AF00BFBD4680BC704780B586B0A3
:101E3C0000AF78607B68002B01D1012372E27B68D4
:101E4C001B6803F00103002B00F08780924B5B684A
:101E5C0003F00C03042B0CD08F4B5B6803F00C03CA
:101E6C00082B12D18C4B5B6803F48033B3F5803FA5
:101E7C000BD1894B1B6803F40033002B6CD07B68AF
:101E8C005B68002B68D101234CE27B685B68B3F57F
:101E9C00803F06D1804B1B687F4A43F4803313602C
:101EAC002EE07B685B68002B0CD17B4B1B687A4A5D
:101EBC0023F480331360784B1B68774A23F4802318
:101ECC0013601DE07B685B68B3F5A02F0CD1724BDF
:101EDC001B68714A43F4802313606F4B1B686E4A76
:101EEC0043F4803313600BE06B4B1B686A4A23F49A
:101EFC0080331360684B1B68674A23F4802313609C
:101F0C007B685B68002B13D0FEF7AEFF386108E0EE
:101F1C00FEF7AAFF02463B69D31A642B01D90323AF
:101F2C0000E25D4B1B6803F40033002BF0D014E08F
:101F3C00FEF79AFF386108E0FEF796FF02463B6910
:101F4C00D31A642B01D90323ECE1534B1B6803F424
:101F5C000033002BF0D100E000BF7B681B6803F05E
:101F6C000203002B63D04C4B5B6803F00C03002B7B
:101F7C000BD0494B5B6803F00C03082B1CD1464B70
:101F8C005B6803F48033002B16D1434B1B6803F0C2
:101F9C000203002B05D07B681B69012B01D00123A8
:101FAC00C0E13D4B1B6823F0F8027B685B69DB00EA
:101FBC00394913430B603AE07B681B69002B20D036
:101FCC00364B01221A60FEF74FFF386108E0FEF72E
:101FDC004BFF02463B69D31A022B01D90323A1E123
:101FEC002D4B1B6803F00203002BF0D02A4B1B680F
:101FFC0023F0F8027B685B69DB00274913430B6015
:10200C0015E0264B00221A60FEF72EFF386108E01F
:10201C00FEF72AFF02463B69D31A022B01D9032390
:10202C0080E11D4B1B6803F00203002BF0D17B6891
:10203C001B6803F00803002B3AD07B689B69002BCC
:10204C0019D0174B01221A60FEF70EFF386108E019
:10205C00FEF70AFF02463B69D31A022B01D9032370
:10206C0060E10D4B5B6A03F00203002BF0D0012002
:10207C0000F0CEFA1CE00A4B00221A60FEF7F4FEC8
:10208C0038610FE0FEF7F0FE02463B69D31A022BD3
:10209C0008D9032346E100BF001002400000424271
:1020AC0080044242924B5B6A03F00203002BE9D19D
:1020BC007B681B6803F00403002B00F0A680002350
:1020CC00FB758B4BDB6903F08053002B0DD1884BD8
:1020DC00DB69874A43F08053D361854BDB6903F09E
:1020EC008053BB60BB680123FB75824B1B6803F4F8
:1020FC008073002B18D17F4B1B687E4A43F480738E
:10210C001360FEF7B1FE386108E0FEF7ADFE024643
:10211C003B69D31A642B01D9032303E1754B1B686C
:10212C0003F48073002BF0D07B68DB68012B06D1A5
:10213C006F4B1B6A6E4A43F0010313622DE07B6800
:10214C00DB68002B0CD16A4B1B6A694A23F0010334
:10215C001362674B1B6A664A23F0040313621CE08C
:10216C007B68DB68052B0CD1614B1B6A604A43F022
:10217C00040313625E4B1B6A5D4A43F00103136256
:10218C000BE05B4B1B6A5A4A23F001031362584B5A
:10219C001B6A574A23F0040313627B68DB68002B2D
:1021AC0015D0FEF761FE38610AE0FEF75DFE0246CF
:1021BC003B69D31A41F28832934201D90323B1E02F
:1021CC004B4B1B6A03F00203002BEED014E0FEF71E
:1021DC004BFE38610AE0FEF747FE02463B69D31A14
:1021EC0041F28832934201D903239BE0404B1B6A96
:1021FC0003F00203002BEED1FB7D012B05D13C4BF0
:10220C00DB693B4A23F08053D3617B68DB69002B8D
:10221C0000F08780364B5B6803F00C03082B61D011
:10222C007B68DB69022B46D1334B00221A60FEF728
:10223C001BFE386108E0FEF717FE02463B69D31A15
:10224C00022B01D903236DE0294B1B6803F00073AB
:10225C00002BF0D17B681B6AB3F5803F08D1244B6F
:10226C005B6823F400327B689B68214913434B6005
:10227C001F4B5B6823F474127B68196A7B685B6A7A
:10228C000B431B4913434B601B4B01221A60FEF797
:10229C00EBFD386108E0FEF7E7FD02463B69D31A17
:1022AC00022B01D903233DE0114B1B6803F0007393
:1022BC00002BF0D035E0104B00221A60FEF7D4FD55
:1022CC00386108E0FEF7D0FD02463B69D31A022BB9
:1022DC0001D9032326E0064B1B6803F00073002B87
:1022EC00F0D11EE07B68DB69012B07D1012319E0DB
:1022FC000010024000700040600042420B4B5B68D3
:10230C00FB60FB6803F480327B681B6A9A4206D13F
:10231C00FB6803F470127B685B6A9A4201D001235C
:10232C0000E0002318461837BD4680BD001002405F
:10233C0080B584B000AF786039607B68002B01D128
:10234C000123D0E06A4B1B6803F007033A689A42FA
:10235C0010D9674B1B6823F0070265493B68134390
:10236C000B60634B1B6803F007033A689A4201D079
:10237C000123B8E07B681B6803F00203002B20D01C
:10238C007B681B6803F00403002B05D0594B5B687A
:10239C00584A43F4E06353607B681B6803F00803FE
:1023AC00002B05D0534B5B68524A43F46053536087
:1023BC00504B5B6823F0F0027B689B684D491343DC
:1023CC004B607B681B6803F00103002B40D07B68DB
:1023DC005B68012B07D1474B1B6803F40033002BC0
:1023EC0015D101237FE07B685B68022B07D1414B41
:1023FC001B6803F00073002B09D1012373E03D4BE4
:10240C001B6803F00203002B01D101236BE0394B55
:10241C005B6823F003027B685B68364913434B60AF
:10242C00FEF722FDF8600AE0FEF71EFD0246FB688F
:10243C00D31A41F28832934201D9032353E02D4B36
:10244C005B6803F00C027B685B689B009A42EBD1E3
:10245C00274B1B6803F007033A689A4210D2244BAF
:10246C001B6823F0070222493B6813430B60204B87
:10247C001B6803F007033A689A4201D0012332E04B
:10248C007B681B6803F00403002B08D0194B5B68B6
:10249C0023F4E0627B68DB68164913434B607B686E
:1024AC001B6803F00803002B09D0124B5B6823F464
:1024BC0060527B681B69DB000E4913434B6000F0D4
:1024CC0021F802460B4B5B681B0903F00F030A490A
:1024DC00CB5C22FA03F3094A1360094B1B681846BC
:1024EC00FEF780FC002318461037BD4680BD00BFA8
:1024FC000020024000100240F44F000804000020AD
:10250C000800002080B487B000AF0023FB600023DC
:10251C00BB6000237B6100237B6000233B611E4B6F
:10252C005B68FB60FB6803F00C03042B02D0082BE8
:10253C0003D027E0194B3B6127E0FB689B0C03F0B1
:10254C000F03174AD35C7B60FB6803F48033002BCA
:10255C0010D0114B5B685B0C03F00103114AD35C88
:10256C00BB607B680D4A03FB02F2BB68B2FBF3F362
:10257C007B6104E07B680C4A02FB03F37B617B69A3
:10258C003B6102E0054B3B6100BF3B6918461C37C1
:10259C00BD4680BC704700BF0010024000127A009C
:1025AC000C5000081C50000800093D0080B400AF1E
:1025BC00024B1B681846BD4680BC704704000020C7
:1025CC0080B500AFFFF7F2FF0246054B5B681B0AB4
:1025DC0003F007030349CB5C22FA03F3184680BDD2
:1025EC00001002400450000880B500AFFFF7DEFF7A
:1025FC000246054B5B68DB0A03F007030349CB5C1F
:10260C0022FA03F3184680BD001002400450000863
:10261C0080B485B000AF78600A4B1B680A4AA2FBF5
:10262C0003235B0A7A6802FB03F3FB6000BFFB68C1
:10263C005A1EFA60002BF9D100BF00BF1437BD46FB
:10264C0080BC704704000020D34D621080B586B06A
:10265C0000AF786000233B610023FB607B681B6844
:10266C0003F00103002B7DD00023FB754F4BDB697E
:10267C0003F08053002B0DD14C4BDB694B4A43F0DC
:10268C008053D361494BDB6903F08053BB60BB685B
:10269C000123FB75464B1B6803F48073002B18D188
:1026AC00434B1B68424A43F480731360FEF7DCFB18
:1026BC00386108E0FEF7D8FB02463B69D31A642B5D
:1026CC0001D903236DE03A4B1B6803F48073002B94
:1026DC00F0D0364B1B6A03F44073FB60FB68002B95
:1026EC002ED07B685B6803F44073FA689A4227D05B
:1026FC002E4B1B6A23F44073FB602E4B01221A6095
:10270C002C4B00221A60294AFB681362FB6803F009
:10271C000103002B14D0FEF7A7FB38610AE0FEF78B
:10272C00A3FB02463B69D31A41F28832934201D98A
:10273C00032336E01D4B1B6A03F00203002BEED083
:10274C001A4B1B6A23F440727B685B68174913436E
:10275C000B62FB7D012B05D1144BDB69134A23F073
:10276C008053D3617B681B6803F00203002B08D0F5
:10277C000E4B5B6823F440427B689B680B49134308
:10278C004B607B681B6803F01003002B08D0074BD1
:10279C005B6823F480027B68DB68044913434B605D
:1027AC00002318461837BD4680BD00BF00100240FC
:1027BC00007000404004424280B582B000AF7860A7
:1027CC007B68002B01D1012341E07B6893F83D30FD
:1027DC00DBB2002B06D17B68002283F83C207868A2
:1027EC00FEF76AF97B68022283F83D207B681A6841
:1027FC007B6804331946104600F034FD7B680122D7
:10280C0083F846207B68012283F83E207B680122F6
:10281C0083F83F207B68012283F840207B680122EB
:10282C0083F841207B68012283F842207B680122D7
:10283C0083F843207B68012283F844207B680122C3
:10284C0083F845207B68012283F83D20002318463D
:10285C000837BD4680BD000080B485B000AF7860FD
:10286C007B6893F83D30DBB2012B01D001233AE0B9
:10287C007B68022283F83D207B681B68DA687B68E2
:10288C001B6842F00102DA607B681B68184A9342AD
:10289C000ED07B681B68B3F1804F09D07B681B6836
:1028AC00144A934204D07B681B68134A934211D19B
:1028BC007B681B689B6803F00703FB60FB68062BB7
:1028CC0010D07B681B681A687B681B6842F0010299
:1028DC001A6007E07B681B681A687B681B6842F00B
:1028EC0001021A60002318461437BD4680BC70479D
:1028FC00002C0140000400400008004080B483B06C
:10290C0000AF78607B681B68DA687B681B6822F014
:10291C000102DA607B681B681A6A41F211131340DA
:10292C00002B0FD17B681B681A6A40F2444313409A
:10293C00002B07D17B681B681A687B681B6822F028
:10294C0001021A607B68012283F83D20002318469F
:10295C000C37BD4680BC704780B582B000AF786044
:10296C007B68002B01D1012341E07B6893F83D305B
:10297C00DBB2002B06D17B68002283F83C20786800
:10298C00FEF76CF87B68022283F83D207B681A689E
:10299C007B6804331946104600F064FC7B68012206
:1029AC0083F846207B68012283F83E207B68012255
:1029BC0083F83F207B68012283F840207B6801224A
:1029CC0083F841207B68012283F842207B68012236
:1029DC0083F843207B68012283F844207B68012222
:1029EC0083F845207B68012283F83D20002318469C
:1029FC000837BD4680BD000080B584B000AF78605C
:102A0C0039600023FB733B68002B09D17B6893F87A
:102A1C003E30DBB2012B14BF01230023DBB222E0DA
:102A2C003B68042B09D17B6893F83F30DBB2012B58
:102A3C0014BF01230023DBB215E03B68082B09D13E
:102A4C007B6893F84030DBB2012B14BF01230023C9
:102A5C00DBB208E07B6893F84130DBB2012B14BF8A
:102A6C0001230023DBB2002B01D00123A9E03B683A
:102A7C00002B04D17B68022283F83E2013E03B68D4
:102A8C00042B04D17B68022283F83F200BE03B68C7
:102A9C00082B04D17B68022283F8402003E07B687A
:102AAC00022283F841203B680C2B41D801A252F83A
:102ABC0023F000BFF52A00083D2B00083D2B000831
:102ACC003D2B0008072B00083D2B00083D2B000870
:102ADC003D2B0008192B00083D2B00083D2B00084E
:102AEC003D2B00082B2B00087B681B68DA687B6881
:102AFC001B6842F00202DA601DE07B681B68DA6832
:102B0C007B681B6842F00402DA6014E07B681B6887
:102B1C00DA687B681B6842F00802DA600BE07B68BD
:102B2C001B68DA687B681B6842F01002DA6002E00E
:102B3C000123FB7300BFFB7B002B41D17B681B681F
:102B4C0001223968184600F019FE7B681B681F4A81
:102B5C00934207D17B681B685A6C7B681B6842F4F4
:102B6C0000425A647B681B68184A93420ED07B68FB
:102B7C001B68B3F1804F09D07B681B68144A9342E1
:102B8C0004D07B681B68134A934211D17B681B6885
:102B9C009B6803F00703BB60BB68062B10D07B68F7
:102BAC001B681A687B681B6842F001021A6007E018
:102BBC007B681B681A687B681B6842F001021A600C
:102BCC00FB7B18461037BD4680BD00BF002C014072
:102BDC00000400400008004080B584B000AF78606D
:102BEC0039600023FB733B680C2B41D801A252F8CF
:102BFC0023F000BF352C00087D2C00087D2C00082C
:102C0C007D2C0008472C00087D2C00087D2C00082A
:102C1C007D2C0008592C00087D2C00087D2C000808
:102C2C007D2C00086B2C00087B681B68DA687B68BD
:102C3C001B6822F00202DA601DE07B681B68DA6810
:102C4C007B681B6822F00402DA6014E07B681B6866
:102C5C00DA687B681B6822F00802DA600BE07B689C
:102C6C001B68DA687B681B6822F01002DA6002E0ED
:102C7C000123FB7300BFFB7B002B57D17B681B68C8
:102C8C0000223968184600F079FD7B681B682A4AD7
:102C9C00934217D17B681B681A6A41F211131340D7
:102CAC00002B0FD17B681B681A6A40F24443134017
:102CBC00002B07D17B681B685A6C7B681B6822F45D
:102CCC0000425A647B681B681A6A41F21113134064
:102CDC00002B0FD17B681B681A6A40F244431340E7
:102CEC00002B07D17B681B681A687B681B6822F075
:102CFC0001021A603B68002B04D17B68012283F827
:102D0C003E2013E03B68042B04D17B68012283F83E
:102D1C003F200BE03B68082B04D17B68012283F831
:102D2C00402003E07B68012283F84120FB7B18469E
:102D3C001037BD4680BD00BF002C014080B584B06B
:102D4C0000AF78607B681B68DB68FB607B681B6886
:102D5C001B69BB60BB6803F00203002B20D0FB682F
:102D6C0003F00203002B1BD07B681B686FF0020280
:102D7C001A617B6801221A777B681B689B6903F0D8
:102D8C000303002B03D0786800F05AFA05E078684A
:102D9C0000F04DFA7868FDF7E1FC7B6800221A77A9
:102DAC00BB6803F00403002B20D0FB6803F0040382
:102DBC00002B1BD07B681B686FF004021A617B68C8
:102DCC0002221A777B681B689B6903F44073002B03
:102DDC0003D0786800F034FA05E0786800F027FA40
:102DEC007868FDF7BBFC7B6800221A77BB6803F0A0
:102DFC000803002B20D0FB6803F00803002B1BD02A
:102E0C007B681B686FF008021A617B6804221A77D2
:102E1C007B681B68DB6903F00303002B03D0786825
:102E2C0000F00EFA05E0786800F001FA7868FDF71A
:102E3C0095FC7B6800221A77BB6803F01003002B0B
:102E4C0020D0FB6803F01003002B1BD07B681B68A1
:102E5C006FF010021A617B6808221A777B681B6876
:102E6C00DB6903F44073002B03D0786800F0E8F9B9
:102E7C0005E0786800F0DBF97868FDF76FFC7B689B
:102E8C0000221A77BB6803F00103002B0CD0FB68FF
:102E9C0003F00103002B07D07B681B686FF0010265
:102EAC001A617868FDF746FCBB6803F08003002BC1
:102EBC000CD0FB6803F08003002B07D07B681B68E9
:102ECC006FF080021A61786800F034FDBB6803F083
:102EDC004003002B0CD0FB6803F04003002B07D001
:102EEC007B681B686FF040021A61786800F0B1F9DA
:102EFC00BB6803F02003002B0CD0FB6803F020030D
:102F0C00002B07D07B681B686FF020021A61786871
:102F1C0000F007FD00BF1037BD4680BD80B586B000
:102F2C0000AFF860B9607A600023FB75FB6893F81A
:102F3C003C30012B01D10223AEE0FB68012283F867
:102F4C003C207B680C2B00F29F8001A252F823F0EE
:102F5C00912F000895300008953000089530000836
:102F6C00D12F0008953000089530000895300008E6
:102F7C001330000895300008953000089530000893
:102F8C0053300008FB681B68B968184600F0D8F984
:102F9C00FB681B689A69FB681B6842F008029A611F
:102FAC00FB681B689A69FB681B6822F004029A6133
:102FBC00FB681B689969BB681A69FB681B680A4344
:102FCC009A6164E0FB681B68B968184600F01EFA49
:102FDC00FB681B689A69FB681B6842F400629A6183
:102FEC00FB681B689A69FB681B6822F480629A6113
:102FFC00FB681B689969BB681B691A02FB681B6834
:10300C000A439A6143E0FB681B68B968184600F0F4
:10301C0067FAFB681B68DA69FB681B6842F00802F8
:10302C00DA61FB681B68DA69FB681B6822F0040232
:10303C00DA61FB681B68D969BB681A69FB681B6895
:10304C000A43DA6123E0FB681B68B968184600F094
:10305C00B1FAFB681B68DA69FB681B6842F4006212
:10306C00DA61FB681B68DA69FB681B6822F4806212
:10307C00DA61FB681B68D969BB681B691A02FB68BB
:10308C001B680A43DA6102E00123FB7500BFFB6891
:10309C00002283F83C20FB7D18461837BD4680BDC6
:1030AC0080B584B000AF786039600023FB737B6817
:1030BC0093F83C30012B01D10223B4E07B68012250
:1030CC0083F83C207B68022283F83D207B681B68D8
:1030DC009B68BB60BB6823F07703BB60BB6823F4C1
:1030EC007F43BB607B681B68BA689A603B681B684F
:1030FC00B3F5005F3ED0B3F5005F00F28780B3F507
:10310C00805F00F08680B3F5805F7FD8702B1AD07B
:10311C00702B7BD8602B50D0602B77D8502B3CD0A9
:10312C00502B73D8402B58D0402B6FD8302B64D0F9
:10313C00302B6BD8202B60D0202B67D8002B5CD089
:10314C00102B5AD062E07B6818683B6899683B6822
:10315C005A683B68DB6800F0F2FA7B681B689B6876
:10316C00BB60BB6843F07703BB607B681B68BA68C5
:10317C009A604FE07B6818683B6899683B685A68AE
:10318C003B68DB6800F0DBFA7B681B689A687B683D
:10319C001B6842F480429A603CE07B6818683B688C
:1031AC0059683B68DB681A4600F052FA7B681B686A
:1031BC005021184600F0A9FA2CE07B6818683B688F
:1031CC0059683B68DB681A4600F070FA7B681B682C
:1031DC006021184600F099FA1CE07B6818683B687F
:1031EC0059683B68DB681A4600F032FA7B681B684A
:1031FC004021184600F089FA0CE07B681A683B689D
:10320C001B681946104600F080FA03E00123FB739B
:10321C0000E000BF7B68012283F83D207B68002220
:10322C0083F83C20FB7B18461037BD4680BD80B42C
:10323C0083B000AF786000BF0C37BD4680BC7047D0
:10324C0080B483B000AF786000BF0C37BD4680BC43
:10325C00704780B483B000AF786000BF0C37BD46B8
:10326C0080BC704780B485B000AF786039607B68F3
:10327C001B68FB607B682F4A93420BD07B68B3F1D1
:10328C00804F07D07B682C4A934203D07B682B4A33
:10329C00934208D1FB6823F07003FB603B685B68CA
:1032AC00FA681343FB607B68224A93420BD07B681D
:1032BC00B3F1804F07D07B681F4A934203D07B68E1
:1032CC001E4A934208D1FB6823F44073FB603B68B1
:1032DC00DB68FA681343FB60FB6823F080023B68F1
:1032EC005B691343FB607B68FA681A603B689A68F9
:1032FC007B68DA623B681A687B689A627B680D4A65
:10330C00934203D13B681A697B681A637B6801227C
:10331C005A617B681B6903F00103002B05D07B68A5
:10332C001B6923F001027B681A6100BF1437BD468C
:10333C0080BC7047002C0140000400400008004095
:10334C0080B487B000AF786039607B681B6A7B61A2
:10335C007B681B6A23F001027B681A627B685B68DE
:10336C003B617B689B69FB60FB6823F07003FB602F
:10337C00FB6823F00303FB603B681B68FA6813438C
:10338C00FB607B6923F002037B613B689B687A6975
:10339C0013437B617B681C4A93420CD17B6923F0FD
:1033AC0008037B613B68DB687A6913437B617B694B
:1033BC0023F004037B617B68134A934211D13B6970
:1033CC0023F480733B613B6923F400733B613B68DE
:1033DC005B693A6913433B613B689B693A691343E8
:1033EC003B617B683A695A607B68FA689A613B6812
:1033FC005A687B685A637B687A691A6200BF1C370B
:10340C00BD4680BC704700BF002C014080B487B023
:10341C0000AF786039607B681B6A7B617B681B6AD4
:10342C0023F010027B681A627B685B683B617B68E7
:10343C009B69FB60FB6823F4E043FB60FB6823F4AF
:10344C004073FB603B681B681B02FA681343FB600C
:10345C007B6923F020037B613B689B681B017A69C5
:10346C0013437B617B681D4A93420DD17B6923F02A
:10347C0080037B613B68DB681B017A6913437B61CA
:10348C007B6923F040037B617B68144A934213D120
:10349C003B6923F480633B613B6923F400633B612C
:1034AC003B685B699B003A6913433B613B689B69D2
:1034BC009B003A6913433B617B683A695A607B68AD
:1034CC00FA689A613B685A687B689A637B687A6988
:1034DC001A6200BF1C37BD4680BC7047002C0140EF
:1034EC0080B487B000AF786039607B681B6A7B6101
:1034FC007B681B6A23F480727B681A627B685B684A
:10350C003B617B68DB69FB60FB6823F07003FB604D
:10351C00FB6823F00303FB603B681B68FA681343EA
:10352C00FB607B6923F400737B613B689B681B0227
:10353C007A6913437B617B681D4A93420DD17B6989
:10354C0023F400637B613B68DB681B027A691343DD
:10355C007B617B6923F480637B617B68144A9342B3
:10356C0013D13B6923F480533B613B6923F4005333
:10357C003B613B685B691B013A6913433B613B68E8
:10358C009B691B013A6913433B617B683A695A603A
:10359C007B68FA68DA613B685A687B68DA637B6837
:1035AC007A691A6200BF1C37BD4680BC704700BFE9
:1035BC00002C014080B487B000AF786039607B6824
:1035CC001B6A3B617B681B6A23F480527B681A621E
:1035DC007B685B687B617B68DB69FB60FB6823F461
:1035EC00E043FB60FB6823F44073FB603B681B68A3
:1035FC001B02FA681343FB603B6923F400533B61E5
:10360C003B689B681B033A6913433B617B680F4A19
:10361C00934209D17B6923F480437B613B685B69EE
:10362C009B017A6913437B617B687A695A607B687A
:10363C00FA68DA613B685A687B681A647B683A6995
:10364C001A6200BF1C37BD4680BC7047002C01407D
:10365C0080B487B000AFF860B9607A60FB681B6A11
:10366C007B61FB681B6A23F00102FB681A62FB6832
:10367C009B693B613B6923F0F0033B617B681B0159
:10368C003A6913433B617B6923F00A037B617A69D6
:10369C00BB6813437B61FB683A699A61FB687A6982
:1036AC001A6200BF1C37BD4680BC704780B487B01F
:1036BC0000AFF860B9607A60FB681B6A7B61FB68DD
:1036CC001B6A23F01002FB681A62FB689B693B6162
:1036DC003B6923F470433B617B681B033A691343DA
:1036EC003B617B6923F0A0037B61BB681B017A699A
:1036FC0013437B61FB683A699A61FB687A691A62C9
:10370C0000BF1C37BD4680BC704780B485B000AF8D
:10371C00786039607B689B68FB60FB6823F0700302
:10372C00FB603A68FB68134343F00703FB607B685C
:10373C00FA689A6000BF1437BD4680BC704780B4ED
:10374C0087B000AFF860B9607A603B60FB689B683B
:10375C007B617B6923F47F437B613B681A027B6846
:10376C001A43BB6813437A6913437B61FB687A691C
:10377C009A6000BF1C37BD4680BC704780B487B0D0
:10378C0000AFF860B9607A60BB6803F01F030122D8
:10379C0002FA03F37B61FB681A6A7B69DB431A400C
:1037AC00FB681A62FB681A6ABB6803F01F0379682E
:1037BC0001FA03F31A43FB681A6200BF1C37BD46BB
:1037CC0080BC704780B485B000AF786039607B688E
:1037DC0093F83C30012B01D1022346E07B68012297
:1037EC0083F83C207B68022283F83D207B681B68B1
:1037FC005B68FB607B681B689B68BB60FB6823F0A5
:10380C007003FB603B681B68FA681343FB607B68C2
:10381C001B68FA685A607B681B68164A93420ED084
:10382C007B681B68B3F1804F09D07B681B68124A18
:10383C00934204D07B681B68104A93420CD1BB683E
:10384C0023F08003BB603B685B68BA681343BB60C2
:10385C007B681B68BA689A607B68012283F83D20FC
:10386C007B68002283F83C20002318461437BD46A1
:10387C0080BC7047002C0140000400400008004050
:10388C0080B485B000AF786039600023FB607B6842
:10389C0093F83C30012B01D102233DE07B680122DF
:1038AC0083F83C20FB6823F0FF023B68DB68134382
:1038BC00FB60FB6823F440723B689B681343FB601E
:1038CC00FB6823F480623B685B681343FB60FB6816
:1038DC0023F400623B681B681343FB60FB6823F412
:1038EC0080523B681B691343FB60FB6823F4005256
:1038FC003B685B691343FB60FB6823F480423B68C5
:10390C00DB691343FB607B681B68FA685A647B684D
:10391C00002283F83C20002318461437BD4680BC97
:10392C00704780B483B000AF786000BF0C37BD46E1
:10393C0080BC704780B483B000AF786000BF0C3798
:10394C00BD4680BC704780B582B000AF78607B68A4
:10395C00002B01D1012342E07B6893F84130DBB2AC
:10396C00002B06D17B68002283F840207868FDF795
:10397C00FBF87B68242283F841207B681B68DA689B
:10398C007B681B6822F40052DA60786800F0B8FD9E
:10399C007B681B681A697B681B6822F490421A6169
:1039AC007B681B685A697B681B6822F02A025A6183
:1039BC007B681B68DA687B681B6842F40052DA602B
:1039CC007B6800225A647B68202283F841207B6844
:1039DC00202283F842207B6800225A630023184679
:1039EC000837BD4680BD80B58AB002AFF860B960BB
:1039FC003B601346FB8000237B61FB6893F84130EE
:103A0C00DBB2202B75D1BB68002B02D0FB88002BBE
:103A1C0001D101236EE0FB6800225A64FB6821226D
:103A2C0083F84120FDF720FA7861FB68FA889A84C4
:103A3C00FB68FA88DA84FB689B68B3F5805F08D171
:103A4C00FB681B69002B04D10023FB61BB68BB61C5
:103A5C0003E0BB68FB610023BB612EE03B68009375
:103A6C007B6900228021F86800F01DFB0346002BC7
:103A7C0005D0FB68202283F8412003233AE0FB6940
:103A8C00002B0BD1BB691B881A46FB681B68C2F361
:103A9C0008025A60BB690233BB6107E0FB691A7804
:103AAC00FB681B685A60FB690133FB61FB68DB8CAC
:103ABC009BB2013B9AB2FB68DA84FB68DB8C9BB24D
:103ACC00002BCBD13B6800937B6900224021F86826
:103ADC0000F0E9FA0346002B05D0FB68202283F89E
:103AEC004120032306E0FB68202283F841200023B9
:103AFC0000E0022318462037BD4680BD80B584B057
:103B0C0000AFF860B9601346FB80FB6893F8423055
:103B1C00DBB2202B12D1BB68002B02D0FB88002B10
:103B2C0001D101230BE0FB6800221A63FB881A46C3
:103B3C00B968F86800F010FB034600E00223184651
:103B4C001037BD4680BD000080B5BAB000AF7860BC
:103B5C007B681B681B68C7F8E4307B681B68DB68F4
:103B6C00C7F8E0307B681B685B69C7F8DC30002362
:103B7C00C7F8D8300023C7F8D430D7F8E43003F0B6
:103B8C000F03C7F8D830D7F8D830002B0FD1D7F89F
:103B9C00E43003F02003002B09D0D7F8E03003F019
:103BAC002003002B03D0786800F0ECFB5BE2D7F825
:103BBC00D830002B00F0DE80D7F8DC3003F00103A6
:103BCC00002B06D1D7F8E03003F49073002B00F0F3
:103BDC00D180D7F8E43003F00103002B0BD0D7F8D9
:103BEC00E03003F48073002B05D07B685B6C43F0F2
:103BFC0001027B685A64D7F8E43003F00403002B0D
:103C0C000BD0D7F8DC3003F00103002B05D07B6818
:103C1C005B6C43F002027B685A64D7F8E43003F023
:103C2C000203002B0BD0D7F8DC3003F00103002B80
:103C3C0005D07B685B6C43F004027B685A64D7F850
:103C4C00E43003F00803002B11D0D7F8E03003F078
:103C5C002003002B05D1D7F8DC3003F00103002B37
:103C6C0005D07B685B6C43F008027B685A647B6808
:103C7C005B6C002B00F0F281D7F8E43003F02003EA
:103C8C00002B08D0D7F8E03003F02003002B02D033
:103C9C00786800F077FB7B681B685B6903F0400376
:103CAC00002B14BF01230023DBB2C7F8D4307B6890
:103CBC005B6C03F00803002B03D1D7F8D430002B36
:103CCC004FD0786800F081FA7B681B685B6903F061
:103CDC004003002B41D07B681B681433C7F89C3021
:103CEC00D7F89C3053E8003FC7F89830D7F8983095
:103CFC0023F04003C7F8D0307B681B681433D7F827
:103D0C00D020C7F8A820C7F8A430D7F8A410D7F84B
:103D1C00A82041E80023C7F8A030D7F8A030002B2A
:103D2C00D9D17B68DB6B002B13D07B68DB6B7E4AB5
:103D3C005A637B68DB6B1846FDF71AFE0346002BB3
:103D4C0016D07B68DB6B5B6B7A68D26B104698473E
:103D5C000EE0786800F093F90AE0786800F08FF9CB
:103D6C0006E0786800F08BF97B6800225A6475E1F4
:103D7C0000BF73E17B681B6B012B40F04F81D7F8C0
:103D8C00E43003F01003002B00F04881D7F8E0304A
:103D9C0003F01003002B00F041810023BB607B6813
:103DAC001B681B68BB607B681B685B68BB60BB687F
:103DBC007B681B685B6903F04003002B00F0B68046
:103DCC007B68DB6B1B685B68A7F8BE30B7F8BE304E
:103DDC00002B00F045817B689B8DB7F8BE209A4282
:103DEC0080F03E817B68B7F8BE20DA857B68DB6BA0
:103DFC009B69202B00F088807B681B680C33C7F80C
:103E0C008830D7F8883053E8003FC7F88430D7F8AB
:103E1C00843023F48073C7F8B8307B681B680C338C
:103E2C00D7F8B820C7F89420C7F89030D7F890107E
:103E3C00D7F8942041E80023C7F88C30D7F88C30A1
:103E4C00002BD9D17B681B6814337B677B6F53E8DD
:103E5C00003F3B673B6F23F00103C7F8B4307B682E
:103E6C001B681433D7F8B420C7F88020FB67F96FB0
:103E7C00D7F8802041E80023BB67BB6F002BE1D152
:103E8C007B681B6814333B663B6E53E8003FFB6555
:103E9C00FB6D23F04003C7F8B0307B681B6814330C
:103EAC00D7F8B020FA66BB66B96EFA6E41E800230B
:103EBC007B667B6E002BE3D17B68202283F842204B
:103ECC007B6800221A637B681B680C33FB64FB6CF9
:103EDC0053E8003FBB64BB6C23F01003C7F8AC3055
:103EEC007B681B680C33D7F8AC20BA657B65796DA1
:103EFC00BA6D41E800233B653B6D002BE3D17B6839
:103F0C00DB6B1846FDF7F9FC7B6802225A637B6871
:103F1C009A8D7B68DB8D9BB2D31A9BB2194678685D
:103F2C0000F0B6F89CE000BF9B4200087B689A8DBD
:103F3C007B68DB8D9BB2D31AA7F8CE307B68DB8D08
:103F4C009BB2002B00F08E80B7F8CE30002B00F027
:103F5C0089807B681B680C33BB63BB6B53E8003FE9
:103F6C007B637B6B23F49073C7F8C8307B681B684A
:103F7C000C33D7F8C8207A643B64396C7A6C41E80E
:103F8C000023FB63FB6B002BE3D17B681B681433B2
:103F9C007B627B6A53E8003F3B623B6A23F0010380
:103FAC00C7F8C4307B681B681433D7F8C4203A6355
:103FBC00FB62F96A3A6B41E80023BB62BB6A002BD7
:103FCC00E3D17B68202283F842207B6800221A63AD
:103FDC007B681B680C333B613B6953E8003FFB601B
:103FEC00FB6823F01003C7F8C0307B681B680C33E8
:103FFC00D7F8C020FA61BB61B969FA6941E80023BE
:10400C007B617B69002BE3D17B6802225A63B7F892
:10401C00CE301946786800F03BF823E0D7F8E4304E
:10402C0003F08003002B09D0D7F8E03003F08003B5
:10403C00002B03D0786800F03EF914E0D7F8E43098
:10404C0003F04003002B0ED0D7F8E03003F0400310
:10405C00002B08D0786800F07DF904E000BF02E086
:10406C0000BF00E000BFE837BD4680BD80B483B020
:10407C0000AF786000BF0C37BD4680BC704780B481
:10408C0083B000AF786000BF0C37BD4680BC704772
:10409C0080B483B000AF78600B467B8000BF0C37D8
:1040AC00BD4680BC704780B586B000AFF860B96083
:1040BC003B601346FB713BE03B6AB3F1FF3F37D0EB
:1040CC00FCF7D2FE02463B68D31A3A6A9A4202D3F4
:1040DC003B6A002B01D103233AE0FB681B68DB68C9
:1040EC0003F00403002B23D0BB68802B20D0BB68CB
:1040FC00402B1DD0FB681B681B6803F00803082BC2
:10410C0016D100237B61FB681B681B687B61FB6815
:10411C001B685B687B617B69F86800F056F8FB688C
:10412C0008225A64FB68002283F8402001230FE028
:10413C00FB681B681A68BB681340BA689A420CBFCC
:10414C0001230023DBB21A46FB799A42B4D0002338
:10415C0018461837BD4680BD80B485B000AFF860F6
:10416C00B9601346FB80FB68BA689A62FB68FA88F0
:10417C009A85FB68FA88DA85FB6800225A64FB682A
:10418C00222283F84220FB681B69002B07D0FB68B6
:10419C001B68DA68FB681B6842F48072DA60FB68A3
:1041AC001B685A69FB681B6842F001025A61FB6884
:1041BC001B68DA68FB681B6842F02002DA60002397
:1041CC0018461437BD4680BC704780B495B000AF1C
:1041DC0078607B681B680C337B637B6B53E8003F18
:1041EC003B633B6B23F49073FB647B681B680C3361
:1041FC00FA6C3A64FB63F96B3A6C41E80023BB63DD
:10420C00BB6B002BE5D17B681B6814333B623B6AAC
:10421C0053E8003FFB61FB6923F00103BB647B683F
:10422C001B681433BA6CFA62BB62B96AFA6A41E869
:10423C0000237B627B6A002BE5D17B681B6B012B17
:10424C0019D17B681B680C33FB60FB6853E8003F9B
:10425C00BB60BB6823F010037B647B681B680C336A
:10426C007A6CBA617B617969BA6941E800233B6178
:10427C003B69002BE5D17B68202283F842207B68C8
:10428C0000221A6300BF5437BD4680BC704780B50E
:10429C0084B000AF78607B685B6AFB60FB680022CF
:1042AC00DA85FB680022DA84F868FFF7E8FE00BFC5
:1042BC001037BD4680BD80B485B000AF78607B6898
:1042CC0093F84130DBB2212B3ED17B689B68B3F570
:1042DC00805F14D17B681B69002B10D17B681B6A33
:1042EC00FB60FB681B881A467B681B68C2F30802DC
:1042FC005A607B681B6A9A1C7B681A6208E07B68B0
:10430C001B6A591C7A6811621A787B681B685A60A0
:10431C007B68DB8C9BB2013B9BB27A681946D184DB
:10432C00002B0FD17B681B68DA687B681B6822F056
:10433C008002DA607B681B68DA687B681B6842F075
:10434C004002DA60002300E0022318461437BD4611
:10435C0080BC704780B582B000AF78607B681B680A
:10436C00DA687B681B6822F04002DA607B682022E6
:10437C0083F841207868FFF779FE00231846083748
:10438C00BD4680BD80B58CB000AF78607B6893F87B
:10439C004230DBB2222B40F0AE807B689B68B3F5D9
:1043AC00805F17D17B681B69002B13D10023FB6244
:1043BC007B689B6ABB627B681B685B689BB2C3F3C0
:1043CC0008039AB2BB6A1A807B689B6A9A1C7B684A
:1043DC009A6226E07B689B6AFB620023BB627B6867
:1043EC009B68B3F5805F07D07B689B68002B0AD174
:1043FC007B681B69002B06D17B681B685B68DAB293
:10440C00FB6A1A7008E07B681B685B68DBB203F020
:10441C007F03DAB2FB6A1A707B689B6A5A1C7B6852
:10442C009A627B68DB8D9BB2013B9BB27A68194622
:10443C00D185002B5DD17B681B68DA687B681B68B3
:10444C0022F02002DA607B681B68DA687B681B68E4
:10445C0022F48072DA607B681B685A697B681B687F
:10446C0022F001025A617B68202283F842207B688B
:10447C0000225A637B681B6B012B35D17B680022B1
:10448C001A637B681B680C337B617B6953E8003FC4
:10449C003B613B6923F010037B627B681B680C3328
:1044AC007A6A3A62FB61F9693A6A41E80023BB61B6
:1044BC00BB69002BE5D17B681B681B6803F01003FC
:1044CC00102B0AD10023FB607B681B681B68FB6008
:1044DC007B681B685B68FB60FB687B689B8D19467F
:1044EC007868FFF7D5FD02E07868FCF7FDF800234B
:1044FC0002E0002300E0022318463037BD4680BDA1
:10450C0080B584B000AF78607B681B681B6923F4AE
:10451C0040517B68DA687B681B680A431A617B68C8
:10452C009A687B681B691A437B685B691343BB60A1
:10453C007B681B68DB6823F4B05323F00C037A68A8
:10454C001268B9680B43D3607B681B685B6923F402
:10455C0040717B689A697B681B680A435A617B6867
:10456C001B682C4A934203D1FEF73EF8F86002E038
:10457C00FEF726F8F860FA6813469B0013449A007D
:10458C001A447B685B689B00B2FBF3F3224AA2FBE4
:10459C0003235B091901FA6813469B0013449A0024
:1045AC001A447B685B689B00B2FBF3F21A4BA3FBCB
:1045BC0002035B09642000FB03F3D31A1B013233A3
:1045CC00154AA2FB03235B0903F0F0031944FA68B4
:1045DC0013469B0013449A001A447B685B689B004B
:1045EC00B2FBF3F20C4BA3FB02035B09642000FB50
:1045FC0003F3D31A1B013233074AA2FB03235B09D3
:10460C0003F00F027B681B680A449A6000BF1037E6
:10461C00BD4680BD003801401F85EB510EB46FF0D4
:10462C00004100B59CB01DAB02900690079104911F
:10463C000848094953F8042B0591006802A9019315
:10464C0000F092F90022029B1A701CB05DF804EB8A
:10465C0003B07047100000200802FFFF034602441D
:10466C00934200D1704703F8011BF9E7014B18681E
:10467C00704700BF1000002070B500260C4D0D4C8B
:10468C00641BA410A64209D100F078FC00260A4D48
:10469C000A4C641BA410A64205D170BD55F8043B0E
:1046AC0098470136EEE755F8043B98470136F2E798
:1046BC005C5000085C5000085C500008605000081A
:1046CC007047704738B50546002940D051F8043C76
:1046DC000C1F002BB8BFE41800F0DEF81C4A13685E
:1046EC0033B9636014602846BDE8384000F0DAB88E
:1046FC00A34208D9206821188B4201BF19685B6856
:10470C0009182160EDE71A465B680BB1A342FAD990
:10471C0011685018A0420BD12068014450188342F4
:10472C001160E0D118685B68084410605360DAE7E8
:10473C0002D90C232B60D6E7206821188B4201BFCD
:10474C0019685B680918216063605460CBE738BD59
:10475C00E002002070B50F4E0C463168054611B9C9
:10476C0000F0AAFB30602146284600F0A5FB431C54
:10477C0003D14FF0FF34204670BDC41C24F0030459
:10478C00A042F8D0211A284600F096FB0130F2D155
:10479C00EFE700BFDC0200202DE9F843CD1C25F02B
:1047AC00030508350C2D38BF0C25002D064601DB02
:1047BC00A94204D90C2333600020BDE8F883DFF84C
:1047CC00D48000F069F8D8F800301C4644BB294668
:1047DC003046FFF7BFFF431C044658D1D8F80040C1
:1047EC002746002F43D1002C4BD023683946304646
:1047FC0004EB030900F060FB814542D1216830468F
:10480C006D1A2946FFF7A6FF01303AD023682B44D6
:10481C002360D8F800305A6862BBC8F800700FE00B
:10482C002268521B20D40B2A17D96119A342256088
:10483C0018BF5960636808BFC8F8001062514B601C
:10484C00304600F02FF804F10B00231D20F0070078
:10485C00C21A1CBF1B1AA350AFE76268A3420CBF5D
:10486C00C8F800205A60EBE723466468AEE73C4684
:10487C007F68B6E71A465B68A342FBD100235360FE
:10488C00DEE70C233046336000F00CF894E705604B
:10489C00D6E700BFE00200200148FFF711BF00BFC0
:1048AC00D80200200148FFF70CBF00BFD80200203F
:1048BC002DE9F0471F468E688246BE420C46904654
:1048CC000B682DD8B1F90C2012F4906F26D06569C5
:1048DC00096905EB4505A3EB010905EBD5757B1CB7
:1048EC004B446D109D4238BF1D46530527D52946B4
:1048FC00FFF752FF064660B34A46216900F0FAFA08
:10490C00A38923F4906343F08003A38126614E4472
:10491C0026603E466561A5EB0905A560BE4200D93F
:10492C003E4632464146206800F0ACFA0020A368AF
:10493C009B1BA360236833442360BDE8F0872A46A1
:10494C0000F0E6FA06460028E0D150462169FFF750
:10495C00B9FE0C23CAF80030A3894FF0FF3043F0A6
:10496C004003A381E9E700002DE9F04F98468B89BD
:10497C0007461B060D4614469DB010D50B6973B93E
:10498C004021FFF709FF2860286130B90C233B60F8
:10499C004FF0FF301DB0BDE8F08F40236B6100235A
:1049AC00099320238DF8293030234FF00109CDF8DD
:1049BC000C80DFF898818DF82A3023469A4613F83C
:1049CC00012B0AB1252AF9D1BAEB040B0BD05B46AB
:1049DC00224629463846FFF76BFF013000F0A780CE
:1049EC00099A5A4409929AF80030002B00F09F80E3
:1049FC0000234FF0FF32CDE905230AF1010A04939D
:104A0C0007938DF853301A935446052214F8011B62
:104A1C004E4800F061FA049AD8B9D00644BF20235E
:104A2C008DF85330110744BF2B238DF853309AF86F
:104A3C0000302A2B15D0544600204FF00A0C079A50
:104A4C00214611F8013B303B092B4BD9B0B10792F1
:104A5C0014E0A0EB080309FA03F31343A2460493F2
:104A6C00D2E7039B191D1B680391002BBBBF5B4254
:104A7C0042F0020207930793B8BF049223782E2BBF
:104A8C000AD163782A2B32D1039B02341A1D1B687E
:104A9C00039243EAE3730593DFF8B4A00322504674
:104AAC00217800F019FA38B14022049BA0EB0A00DF
:104ABC00824013430134049314F8011B0622254849
:104ACC008DF8281000F008FA002836D0224B1BBBBA
:104ADC00039B073323F0070308330393099B3344E9
:104AEC0009936AE70C4601200CFB0232A8E700236D
:104AFC004FF00A0C194601340593204610F8012B8F
:104B0C00303A092A03D9002BC6D00591C4E70446D4
:104B1C0001230CFB0121F0E703AB00932A46384636
:104B2C000E4B04A9AFF30080421C0646D6D1AB89CC
:104B3C005B063FF52DAF09982CE703AB00932A4693
:104B4C003846064B04A900F07DF8EDE71E5000082E
:104B5C00245000082850000800000000BD48000840
:104B6C002DE9F047164698468A680B69074693422A
:104B7C00B8BF1346336091F843200C46DDF8209003
:104B8C000AB1013333602368990642BF336802339C
:104B9C003360256815F0060506D104F1190AE3689F
:104BAC0032689B1AAB422BDC94F843302268003BF2
:104BBC0018BF0123920630D44146384604F1430213
:104BCC00C847013023D02368226903F00603042B65
:104BDC0014BF002533684FF0000608BFE56804F1E8
:104BEC001A0408BFED1A54F8123C08BF25EAE57503
:104BFC009342C4BF9B1AED18B5421AD1002008E0AD
:104C0C000123524641463846C847013003D14FF084
:104C1C00FF30BDE8F0870135C1E73020E11881F89D
:104C2C0043005A1C94F845102244023382F8431076
:104C3C00C2E70123224641463846C8470130E6D038
:104C4C000136D9E72DE9FF470F7E9146782F804634
:104C5C000C469A460C9E01F1430207D8622F0AD8E3
:104C6C00002F00F0D380582F00F0BA8004F14206D8
:104C7C0084F842703AE0A7F16303152BF6D801A132
:104C8C0051F823F0E94C0008FD4C0008794C000861
:104C9C00794C0008794C0008794C0008FD4C000850
:104CAC00794C0008794C0008794C0008794C0008C4
:104CBC00FF4D0008274D0008B94D0008794C00083D
:104CCC00794C0008214E0008794C0008274D00084B
:104CDC00794C0008794C0008C14D000833681A1D46
:104CEC001B68326004F1420684F8423001239EE0D6
:104CFC0033682068191D3160060601D51D6803E074
:104D0C004506FBD5B3F90050002D03DA2D236D4277
:104D1C0084F843300A23594811E0216833680806A7
:104D2C0053F8045B02D4490648BFADB26F2F336011
:104D3C0014BF0A2308235148002184F843106668E5
:104D4C00002EA8BF2168A660A4BF21F00401216039
:104D5C000DB9002E4BD01646B5FBF3F103FB1157E2
:104D6C00C75D06F8017D2F46BB420D46F4D9082BD2
:104D7C000BD12368DF0708D5236961689942DEBF30
:104D8C00302306F8013C06F1FF36921B22614B469C
:104D9C0021464046CDF800A003AAFFF7E1FE013002
:104DAC004AD14FF0FF3004B0BDE8F087236843F0E0
:104DBC00200323607827324884F8457023683168D3
:104DCC001F0651F8045B02D45F0648BFADB23160D8
:104DDC00D90744BF43F0200323601DB11023ABE778
:104DEC002648E9E7236823F020032360F6E71646FC
:104DFC00BDE733682568181D616930602E061B6895
:104E0C0001D5196002E06806FBD51980002316460F
:104E1C002361BCE7336800211A1D32601E6862688A
:104E2C00304600F059F808B1801B6060636823615C
:104E3C00002384F84330AAE73246494640462369AA
:104E4C00D0470130ADD023689B0713D4E068039B97
:104E5C009842B8BF1846A6E7012332464946404659
:104E6C00D04701309DD00135E36803995B1AAB4202
:104E7C00F2DCEBE7002504F11906F5E72F500008EA
:104E8C0040500008884210B501EB020402D984425C
:104E9C00234607D8431EA14208D011F8012B03F872
:104EAC00012FF8E7014602448A4200D110BD13F8E5
:104EBC00014D02F8014DF7E738B50023054D0446C6
:104ECC0008462B60FBF716FF431C02D12B6803B17D
:104EDC00236038BDD4020020034610B5C9B2024489
:104EEC009342184601D1002003E0047801338C4230
:104EFC00F6D110BD0A44914200F1FF3300D1704746
:104F0C0010B511F8014B914203F8014FF9D110BDC6
:104F1C002DE9F041804615460C4621B91146BDE8F5
:104F2C00F041FFF739BC2AB9FFF7CCFB002420462F
:104F3C00BDE8F08100F01AF88542064602D8B5EBC0
:104F4C00500FF4D829464046FFF726FC07460028A8
:104F5C00ECD0B5422A46214628BF3246FFF7CAFF9D
:104F6C0021464046FFF7AEFB3C46E0E751F8043CD7
:104F7C00181F002BBCBF0B58C0187047F8B500BFEA
:104F8C00F8BC08BC9E467047F8B500BFF8BC08BC1E
:044F9C009E46704776
:104FA000204D6F646520310A00000000204D6F64C1
:104FB0006520320A00000000204D6F646520330A2E
:104FC00000000000204D6F646520340A00000000DE
:104FD000204D6F646520350A000000002074757252
:104FE0006E206261636B20004144433A2025640DCA
:104FF0000A0000000000000000000000010203049D
:10500000060708090000000001020304020304056A
:10501000060708090A0B0C0D0E0F10100102232DB4
:10502000302B2000686C4C006566674546470030B1
:1050300031323334353637383941424344454600FE
:1050400030313233343536373839616263646566FE
:04505000000000005C
:08505400F8B0FF7F010000002D
:04505C003101000816
:045060000D01000836
:10506400E703000000127A001000000001000000B5
:1050740014000020000000009C0100200402002015
:105084006C0200200000000000000000000000008E
:10509400000000000000000000000000000000000C
:1050A40000000000000000000000000000000000FC
:1050B40000000000000000000000000000000000EC
:0400000508000D7969
:00000001FF
